{
  "contractName": "Assessment",
  "abi": [
    {
      "constant": true,
      "inputs": [
        {
          "name": "",
          "type": "address"
        }
      ],
      "name": "submissionData",
      "outputs": [
        {
          "name": "",
          "type": "string"
        }
      ],
      "payable": false,
      "stateMutability": "view",
      "type": "function"
    },
    {
      "constant": false,
      "inputs": [
        {
          "name": "submitResult",
          "type": "string"
        }
      ],
      "name": "postSubmission",
      "outputs": [],
      "payable": false,
      "stateMutability": "nonpayable",
      "type": "function"
    },
    {
      "constant": true,
      "inputs": [
        {
          "name": "addres",
          "type": "string"
        }
      ],
      "name": "getSubmissions",
      "outputs": [
        {
          "name": "",
          "type": "string"
        }
      ],
      "payable": false,
      "stateMutability": "view",
      "type": "function"
    }
  ],
  "bytecode": "0x608060405234801561001057600080fd5b5061051a806100206000396000f300608060405260043610610057576000357c0100000000000000000000000000000000000000000000000000000000900463ffffffff16806314ff136c1461005c5780639b0dd99f1461013e578063c2a816f3146101fa575b600080fd5b34801561006857600080fd5b506100c3600480360381019080803590602001908201803590602001908080601f0160208091040260200160405190810160405280939291908181526020018383808284378201915050505050509192919290505050610263565b6040518080602001828103825283818151815260200191508051906020019080838360005b838110156101035780820151818401526020810190506100e8565b50505050905090810190601f1680156101305780820380516001836020036101000a031916815260200191505b509250505060405180910390f35b34801561014a57600080fd5b5061017f600480360381019080803573ffffffffffffffffffffffffffffffffffffffff169060200190929190505050610343565b6040518080602001828103825283818151815260200191508051906020019080838360005b838110156101bf5780820151818401526020810190506101a4565b50505050905090810190601f1680156101ec5780820380516001836020036101000a031916815260200191505b509250505060405180910390f35b34801561020657600080fd5b50610261600480360381019080803590602001908201803590602001908080601f01602080910402602001604051908101604052809392919081815260200183838082843782019150505050505091929192905050506103f3565b005b60606000803373ffffffffffffffffffffffffffffffffffffffff1673ffffffffffffffffffffffffffffffffffffffff1681526020019081526020016000208054600181600116156101000203166002900480601f0160208091040260200160405190810160405280929190818152602001828054600181600116156101000203166002900480156103375780601f1061030c57610100808354040283529160200191610337565b820191906000526020600020905b81548152906001019060200180831161031a57829003601f168201915b50505050509050919050565b60006020528060005260406000206000915090508054600181600116156101000203166002900480601f0160208091040260200160405190810160405280929190818152602001828054600181600116156101000203166002900480156103eb5780601f106103c0576101008083540402835291602001916103eb565b820191906000526020600020905b8154815290600101906020018083116103ce57829003601f168201915b505050505081565b806000803373ffffffffffffffffffffffffffffffffffffffff1673ffffffffffffffffffffffffffffffffffffffff1681526020019081526020016000209080519060200190610445929190610449565b5050565b828054600181600116156101000203166002900490600052602060002090601f016020900481019282601f1061048a57805160ff19168380011785556104b8565b828001600101855582156104b8579182015b828111156104b757825182559160200191906001019061049c565b5b5090506104c591906104c9565b5090565b6104eb91905b808211156104e75760008160009055506001016104cf565b5090565b905600a165627a7a7230582052701b58faaf3aa281e6657e1c597dd8dea36fa75d5c7b11380a81608634dc600029",
  "source": "pragma solidity 0.4.23;\r\n\r\n\r\ncontract Assessment {    \r\n    mapping (address => string) public submissionData;\r\n\r\n    function postSubmission(string submitResult) public {\r\n        submissionData[msg.sender] = submitResult;\r\n    }\r\n\r\n    function getSubmissions(string addres) public view returns (string) {\r\n        return submissionData[msg.sender];\r\n    }\r\n\r\n \r\n}",
  "sourcePath": "D:\\Dubai_BlockChain\\Blockchain\\SolidityContractsApp\\contracts\\Assessment.sol",
  "compiler": {
    "name": "solc",
    "version": "0.4.23+commit.124ca40d.Emscripten.clang"
  },
  "schemaVersion": "2.0.0",
  "updatedAt": "2019-03-14T05:17:08.042Z"
}