{
  "contractName": "Submission",
  "abi": [
    {
      "constant": true,
      "inputs": [],
      "name": "candidate1",
      "outputs": [
        {
          "name": "",
          "type": "uint256"
        }
      ],
      "payable": false,
      "stateMutability": "view",
      "type": "function"
    },
    {
      "constant": true,
      "inputs": [
        {
          "name": "",
          "type": "address"
        }
      ],
      "name": "submissioned",
      "outputs": [
        {
          "name": "",
          "type": "bool"
        }
      ],
      "payable": false,
      "stateMutability": "view",
      "type": "function"
    },
    {
      "constant": true,
      "inputs": [],
      "name": "candidate2",
      "outputs": [
        {
          "name": "",
          "type": "uint256"
        }
      ],
      "payable": false,
      "stateMutability": "view",
      "type": "function"
    },
    {
      "constant": false,
      "inputs": [
        {
          "name": "candidate",
          "type": "uint256"
        }
      ],
      "name": "castSubmission",
      "outputs": [],
      "payable": false,
      "stateMutability": "nonpayable",
      "type": "function"
    }
  ],
  "bytecode": "0x608060405234801561001057600080fd5b5061022a806100206000396000f300608060405260043610610062576000357c0100000000000000000000000000000000000000000000000000000000900463ffffffff16806301243fce14610067578063360e5a2a14610092578063457be599146100ed5780635b57014c1461011a575b600080fd5b34801561007357600080fd5b5061007c610145565b6040518082815260200191505060405180910390f35b34801561009e57600080fd5b506100d3600480360381019080803573ffffffffffffffffffffffffffffffffffffffff16906020019092919050505061014b565b604051808215151515815260200191505060405180910390f35b3480156100f957600080fd5b506101186004803603810190808035906020019092919050505061016b565b005b34801561012657600080fd5b5061012f6101f8565b6040518082815260200191505060405180910390f35b60005481565b60026020528060005260406000206000915054906101000a900460ff1681565b600181141561018a57600080815480929190600101919050555061019d565b6001600081548092919060010191905055505b6001600260003373ffffffffffffffffffffffffffffffffffffffff1673ffffffffffffffffffffffffffffffffffffffff16815260200190815260200160002060006101000a81548160ff02191690831515021790555050565b600154815600a165627a7a72305820067bac764a7179ebc6cb26b847d8c8359ffafe5fcb6102fdaa4c0acf2ac8019e0029",
  "source": "pragma solidity 0.4.23;\r\n\r\n\r\ncontract Submission {\r\n    uint public candidate1;\r\n    uint public candidate2;\r\n    \r\n    mapping (address => bool) public submissioned;\r\n\r\n    function castSubmission(uint candidate) public {\r\n        \r\n        if (candidate == 1)\r\n            candidate1++;        \r\n        else\r\n            candidate2++;            \r\n        \r\n        submissioned[msg.sender] = true;\r\n    }\r\n}",
  "sourcePath": "D:\\Dubai_BlockChain\\Blockchain\\SolidityContractsApp\\contracts\\submission.sol",
  "compiler": {
    "name": "solc",
    "version": "0.4.23+commit.124ca40d.Emscripten.clang"
  },
  "schemaVersion": "2.0.0",
  "updatedAt": "2019-03-14T05:17:07.904Z"
}